:020000040800F2
:10000000D00900209D01000831080008950700086C
:100010002D080008790400084F1C000800000000AB
:10002000000000000000000000000000AF01000818
:10003000D104000800000000B30100087D12000890
:10004000B7010008B7010008B7010008B7010008B0
:10005000B7010008B7010008B7010008B7010008A0
:10006000B7010008B701000811050008B701000832
:10007000B7010008B7010008B7010008B701000880
:10008000B7010008B7010008B7010008B701000870
:10009000B7010008B7010008B701000849050008CA
:1000A000E9120008A1150008B7010008B70100080F
:1000B000B7010008B7010008B7010008B701000840
:1000C000B7010008B7010008B7010008B701000830
:1000D000B7010008B9180008E9180008B7010008BE
:1000E000D5040008B7010008B7010008B7010008EF
:1000F000B7010008B7010008B7010008B701000800
:10010000B7010008B7010008B7010008B7010008EF
:10011000B7010008B701000835160008B70100084C
:10012000B7010008B7010008B7010008B7010008CF
:10013000B7010008B7010008B7010008B7010008BF
:10014000B7010008B7010008B7010008B7010008AF
:10015000B7010008B7010008B7010008B70100089F
:10016000B7010008B7010008B7010008B70100088F
:10017000B7010008B7010008B7010008B70100087F
:10018000B7010008B7010008DFF80CD000F05AF8FA
:100190000048004799270008D009002006488047FA
:1001A00006480047FEE7FEE7FEE7FEE7FEE7FEE75C
:1001B000FEE7FEE7FEE7FEE781120008890100087E
:1001C000D2B201E000F8012B491EFBD27047002299
:1001D000F6E710B513460A4604461946FFF7F0FF46
:1001E000204610BD30B505462A460B4612F8010BD5
:1001F00013F8014B08B1A042F8D01CB1002802D07E
:100200006D1CF1E7284630BD421C10F8011B002987
:10021000FBD1801A704730B50B46014600202022E2
:10022000012409E021FA02F59D4205D303FA02F503
:10023000491B04FA02F52844151EA2F10102F1DC63
:1002400030BD0000064C074D06E0E06840F00103B9
:1002500094E8070098471034AC42F6D3FFF798FFB4
:10026000544C0008744C000821B1826842F001022D
:10027000826003E0826822F0010282607047000021
:100280000021084A1168084A1140D0E900231A43A6
:1002900083681A43C3681A431143044AC2F804131B
:1002A0007047000004230140E030FCFF00200140C3
:1002B00010B50121080200F0BDFD00214FF480704F
:1002C00000F0B8FD10BD0146C86C80B27047024610
:1002D000002013680B400BB1012000E000207047A4
:1002E00030B50246002000235068104C20400D79A4
:1002F0000C6844EA05242043506090680C4C204070
:10030000D1E903542C438D682C434D7944EA4504CC
:1003100020439060D06A20F470000C7D641EE4B22B
:10032000234340EA0350D06230BD0000FFFEFFFCD3
:10033000FDF7FFC0F0B504460D4600200021092D51
:1003400011DDE068A5F10A0606EB4607072606FA66
:1003500007F18843A5F10A0606EB460603FA06F103
:100360000843E0600CE0206905EB4507072606FA24
:1003700007F1884305EB450603FA06F108432061BF
:10038000072A0FDA606B561E06EB86071F2606FA51
:1003900007F18843561E06EB860605FA06F1084368
:1003A000606322E00D2A0FDA206BD61F06EB86076A
:1003B0001F2606FA07F18843D61F06EB860605FAC4
:1003C00006F10843206310E0E06AA2F10D0606EB97
:1003D00086071F2606FA07F18843A2F10D0606EBF1
:1003E000860605FA06F10843E062F0BD816841F037
:1003F000804181607047000000B58DB00121084642
:1004000000F0E8FC0121080200F004FD03208DF853
:10041000300001200B908DF8330002208DF8310060
:100420000BA9134800F022F9FFF742FF00200990C2
:1004300007904FF48030089000200A9007A8FFF73B
:100440001FFF00208DF809000590039001208DF812
:100450001800002001908DF8080001A90548FFF759
:100460003FFF01210348FFF7FFFE0DB000BD000074
:10047000000002400020014000BFFEE77CB50546B9
:100480000E4600F0ADFE08B101207CBD002404E062
:1004900000F082FD0DF80400641C052CF8DB9DF8CB
:1004A00000009DF8011008449DF8021008449DF8D2
:1004B000031008449DF80410884205D19DF80000FF
:1004C00030709DF80200287000F08CFD0020DCE701
:1004D0007047000010B54FF4005000F071F801288B
:1004E00013D10121094801F0C5F80021074801F0A6
:1004F000C4F80021054801F09AF90121034801F0F0
:10050000BCF84FF4005000F055F810BD0040014019
:1005100010B5102000F054F8012812D1012109482B
:1005200001F0A8F80021074801F0A7F800210548CC
:1005300001F07DF90121034801F09FF8102000F03F
:1005400039F810BD0040014010B5202000F038F807
:10055000012813D10121164801F08CF8002114481C
:1005600001F08BF80021124801F061F901211048D7
:1005700001F083F8202000F01DF817E0402000F083
:100580001FF8012812D10121094801F073F8002158
:10059000074801F072F80021054801F048F90121EF
:1005A000034801F06AF8402000F004F810BD000094
:1005B000004001400149086070470000143C0140C0
:1005C00001460020034A12680A400AB1012000E0F7
:1005D00000207047143C0140002123498279002A01
:1005E0003AD00A46126803689A430B461A600A1DFD
:1005F000126803689A430B1D1A60027911440A6855
:1006000003681A430A60184A0832126803689A435A
:10061000154B08331A601A1D126803689A43124B6F
:100620000C331A604279102A0ED11A1F126803681F
:100630001A430D4B08331A601A1D126803681A43D7
:10064000094B0C331A600DE00749427911440A68DE
:1006500003681A430A6005E0027911440A680368D6
:100660009A430A6070470000003C0140F0B50A461A
:1006700000210023002400BF3DE0012505FA01F31D
:10068000156805EA03049C4234D105684F0003262F
:10069000BE40B543056015794E00B5400668354348
:1006A00005601579012D02D01579022D16D18568C6
:1006B0004F000326BE40B543856055794E00B540D6
:1006C000866835438560456801268E40B5434560A0
:1006D000456896798E40B6B235434560C5684F008F
:1006E0000326BE40B543C560D5794E00B540C66807
:1006F0003543C560491C1029BFD3F0BDF0B50023B8
:1007000000244D07ED0E02FA05F3CE1000F120058E
:1007100055F826504E07F70E0F26BE40B543CF10B2
:1007200000F1200646F82750CE1000F1200555F8BC
:10073000265045EA0304CE1000F1200545F8264076
:10074000F0BD0246002013690B400BB1012000E010
:1007500000207047418370470183704742694A40D7
:100760004261704710B50023012219460848FFF77F
:10077000E1FD0748FFF73AFE00BF02210448FFF7FA
:10078000A6FD0028F9D00248FFF79DFD10BD00002E
:100790000020014000BFFEE710B580210A48FFF7A6
:1007A000DBFF40210848FFF7D7FF00F037F8802132
:1007B0000548FFF7CFFF00F031F840210248FFF76E
:1007C000C9FF00F02BF810BD0004024010B58021D5
:1007D0000648FFF7BFFF40210448FFF7BDFF00F0C8
:1007E0001DF880210148FFF7B7FF10BD000402404B
:1007F00010B580210848FFF7AFFF00F00FF8402147
:100800000548FFF7A9FF00F009F840210248FFF76B
:10081000A1FF00F003F810BD000402400A2000BF51
:100820000100A0F10102D0B2FAD1704700BFFEE78B
:100830007047000070B5002100230F22C4781CB35C
:10084000174C246804F4E064C4F5E064C4F30721A1
:10085000C1F10404E3B20A4144789C40E1B28478D7
:10086000144021430C07210E0E4C05786155047885
:1008700004F01F050124AC4005786D11AD0005F1B1
:10088000E025C5F8004109E0047804F01F050124C3
:10089000AC40054D0678761145F8264070BD000045
:1008A0000CED00E000E400E080E100E070B5002421
:1008B0000CE0002506E00020074901EBC5010855C2
:1008C000681CC5B2802DF6DB601CC4B2082CF0DBBE
:1008D00000F0EAF870BD00003C010020F0B51446BD
:1008E0000B46CF1701EB5777C7F3C702CF1701EBC2
:1008F0005777FF10A1EBC707FEB20123B340DDB26B
:100900004CB1134B03EBC0039B5C2B43104F07EB25
:10091000C007BB541AE00E4B03EBC0039B5CDB43E8
:100920000B4F07EBC007BB54094B03EBC0039B5CA9
:100930002B43074F07EBC007BB54054B03EBC0032A
:100940009B5CDB43024F07EBC007BB54F0BD0000CC
:100950003C0100201CB50121022000F03BFA4020A0
:10096000009001208DF804008DF8060003208DF81A
:10097000050001208DF8070069464948FFF776FE1B
:100980008020009001208DF804008DF806000320DF
:100990008DF8050001208DF8070069464048FFF7F3
:1009A00065FE10213F48FFF7D5FEC82001F0EEFAA2
:1009B00010213C48FFF7D0FE0021AE2000F0EDF9F9
:1009C0000021084600F0E9F90021102000F0E5F9C7
:1009D0000021402000F0E1F90021812000F0DDF944
:1009E0000021CF2000F0D9F90021A12000F0D5F995
:1009F0000021C82000F0D1F90021A62000F0CDF997
:100A00000021A82000F0C9F900213F2000F0C5F91D
:100A10000021D32000F0C1F90021084600F0BDF903
:100A20000021D52000F0B9F90021802000F0B5F9AF
:100A30000021D92000F0B1F90021F12000F0ADF93A
:100A40000021DA2000F0A9F90021122000F0A5F918
:100A50000021DB2000F0A1F90021402000F09DF9E9
:100A60000021202000F099F90021022000F095F9E2
:100A700000218D2000F091F90021142000F08DF963
:100A80000021A42000F089F90021A62000F085F9BA
:100A9000FFF70CFF0021AF2000F07FF91CBD000024
:100AA00000040240000C024070B500242BE004F169
:100AB000B001C8B2002100F070F90021084600F032
:100AC0006CF90021102000F068F9FFF765FE78202E
:100AD00000F0C2FAFFF78CFE402000F0BDFAFFF7ED
:100AE00087FE002509E0094901EBC501085D00F01A
:100AF000B3FAFFF77DFE681CC5B2802DF3DBFFF76C
:100B000065FE601CC4B2082CD1DB70BD3C01002026
:100B10002DE9FE4F0746884692461C460197CDF8C0
:100B20000080082C02D14FF006091FE02046E31791
:100B300004EB5373DB1021464FEAE47C04EB5C7C4E
:100B40004FEAEC0CA4EBCC0CBCF1000F02D04FF040
:100B5000010C01E04FF0000C6344224604EBD27C10
:100B60004FEA6C0C03FB0CF303F0FF09AAF1200021
:100B7000C6B200255EE0082C07D106EB46002F49DF
:100B800001EB400010F805B01DE00C2C07D106EB7E
:100B900046002B4901EB800010F805B013E0102C43
:100BA00005D1284800EB061010F805B00BE0182C12
:100BB00007D106EBC600244901EB800010F805B010
:100BC00001E0BDE8FE8F002002901CE00BF0010068
:100BD00028B1414638460C9AFFF780FE09E00C9890
:100BE00008B9012000E00020024641463846FFF7E0
:100BF00075FE4FEA6B0B08F1010000F0FF08029848
:100C0000401CC0B2029002980828DFDB781CC7B2F3
:100C1000082C0BD004EBD4714A100199791A8A423E
:100C200004D1019F00980830C0B20090DDF8008028
:100C3000681CC5B24D459EDB00BFC2E7C42D00084D
:100C4000EC2F000860340008503A00082DE9FC4FF2
:100C50000746884616461C46BB46CDF8048020460B
:100C6000E21704EB5272D2102146E31704EB5373E0
:100C7000DB10A4EBC3030BB1012300E000231A44F3
:100C8000624392B20092002555E0102C05D12C4809
:100C900000EB461010F805A01BE0182C07D106EB5E
:100CA000C600284901EBC00010F805A011E0202C77
:100CB00005D1254800EBC61010F805A009E0402C2E
:100CC00005D1224800EB462010F805A001E0BDE860
:100CD000FC8F4FF000091CE00AF0010028B14146EA
:100CE00038460B9AFFF7FAFD09E00B9808B9012086
:100CF00000E00020024641463846FFF7EFFD4FEA8C
:100D00006A0A08F1010000F0FF0809F1010000F093
:100D1000FF09B9F1080FDFDB781CC7B2A7EB0B00A6
:100D2000A04204D15F4601980830C0B20190DDF8BE
:100D30000480681C85B200988542A6DB00BFC6E728
:100D4000AC4700088C490008D4490008544A000800
:100D50002DE9F84106460F4614461D46DDF81C8075
:100D600013E0CDF8008022782B4639463046FFF755
:100D7000CFFE082D02D1B01DC6B205E0284605EB16
:100D8000D07106EB6101CEB2641C2078202802DB12
:100D900020787E28E5DDBDE8F88170B505460C4673
:100DA000FFF7FAFC782000F057F9FFF721FD1CB19E
:100DB000402000F051F902E0002000F04DF9FFF76B
:100DC00017FD284600F048F9FFF712FDFFF7FEFC7B
:100DD00070BD000029B1064A12680243044B1A6034
:100DE00004E0034A12688243014B1A607047000016
:100DF0003038024029B1064A12680243044B1A6097
:100E000004E0034A12688243014B1A6070470000F5
:100E10004038024029B1064A12680243044B1A6066
:100E200004E0034A12688243014B1A6070470000D5
:100E30004438024029B1064A12680243044B1A6042
:100E400004E0034A12688243014B1A6070470000B5
:100E500024380240F0B5002100220024022500269B
:100E60000223324F3F6807F00C0121B1042905D05D
:100E7000082937D105E02E4F076036E02D4F076077
:100E800033E02A4F3F1F3F68C7F38056274F3F1F6D
:100E90003F6807F03F036EB1264FB7FBF3F7DFF86B
:100EA0008CC0ACF1040CDCF800C0CCF3881C07FB50
:100EB0000CF40CE01E4FB7FBF3F7DFF870C0ACF199
:100EC000040CDCF800C0CCF3881C07FB0CF4174FB3
:100ED0003F1F3F68C7F301477F1C7D00B4FBF5F758
:100EE000076002E0124F076000BF00BF0F4F3F686E
:100EF00007F0F0010909104F7A5C0768D740476096
:100F00000A4F3F6807F4E051890A0B4F7A5C476843
:100F1000D7408760054F3F6807F46041490B064F93
:100F20007A5C4768D740C760F0BD000008380240CF
:100F30000024F40040787D012C00002010B500F062
:100F400039F8002404E0601CC4B2012001F03AF832
:100F500008211048FFF7F5FB012801D1642CF2DBD2
:100F6000002404E0601CC4B2012001F02BF8082129
:100F70000848FFF7E6FB08B9642CF3DB322001F0E8
:100F800021F808210348FFF7DCFB012800D110BD40
:100F90000020FCE70000024070B50025072405E0B2
:100FA000FFF7CCFFA0402843C5B2641E002CF7DA3F
:100FB000284670BD1CB501210846FFF70BFF002035
:100FC0008DF804000820009001208DF80700022011
:100FD0008DF8050069460248FFF748FB1CBD00007C
:100FE000000002401CB501210846FFF7F3FE012076
:100FF0008DF8040000208DF80600082000900120E4
:101000008DF8070002208DF8050069460148FFF7BA
:101010002DFB1CBD0000024030B500228B071C0FC9
:101020000F2303FA04F20B4B8C1053F82430934334
:10103000084C8D1044F8253023468C1053F824308A
:101040008C07240F00FA04F42343024C8D1044F85B
:10105000253030BD0838014070B5044600251BE03E
:1010600004F0800020B180210D48FFF775FB03E0FC
:1010700080210B48FFF76EFBFFF7D0FB40210848AB
:10108000FFF76AFBFFF7CAFB40210548FFF762FB49
:101090006006040E681CC5B2082DE1DB70BD0000BF
:1010A0000004024070B5C2B004462046FFF7ACF819
:1010B00000F113062046FFF7A7F800F113052B46B1
:1010C000002205A102A8009400F0C4FD02A908486E
:1010D00001F09EFD42B070BD41542B434950534531
:1010E0004E443D25642C25640D0A25730D0A00002D
:1010F000004400400CB50020019000903448006886
:1011000040F480303249086000BF3148006800F484
:10111000003000900198401C0190009818B9019887
:10112000B0F5A04FF1D12A48006800F4003010B1AA
:101130000120009001E0002000900098012846D195
:1011400023484030006840F0805021494031086019
:101150002048006840F440401E4908601C480830A0
:1011600000681B49083108600846006840F40040E8
:1011700008600846006840F4A05008601648091F3F
:101180000860081F006840F08070091F086000BFF9
:101190000F48006800F000700028F9D040F2057098
:1011A0000E4908600A480830006820F0030008492A
:1011B000083108600846006840F00200086000BF7F
:1011C00003480830006800F00C000828F8D10CBD76
:1011D000003802400070004008544007003C0240C4
:1011E00010B5FFF7FFFE08212348FFF7B5FA0821E5
:1011F0002148FFF7AFFA142000F0C8FE08211E486E
:10120000FFF7AAFA1E2000F0DDFEFFF7D3FE002450
:1012100003E0012000F0D6FE641C08211648FFF709
:1012200090FA08B1642CF4DB642C01DB012010BDC2
:10123000002403E0641C012000F0C4FE08210E48D5
:10124000FFF77FFA08B9502CF4DB502C01DB0120AA
:10125000EDE7002403E0012000F0B4FE641C082147
:101260000548FFF76EFA08B1502CF4DB502C01DB77
:101270000120DCE70020DAE70000024070470000B0
:1012800010B51548006840F4700013490860134811
:10129000006840F001001149086000200F49083142
:1012A00008600E4800680E4908400C4908600D4867
:1012B000091D0860081F006820F48020091F0860CD
:1012C000002006490C310860FFF714FF4FF0006062
:1012D00001498039086010BD88ED00E00038024007
:1012E000FFFFF6FE1030002410B501219B4800F0EE
:1012F000DFF901287ED110219948FFF722FA002852
:1013000042D198480068012811D1974800782A28CE
:1013100002D12F209449087093480078401CC0B235
:10132000914908703A2801DB302008700CE18D48A3
:101330000068022804D1FFF7B9FA01F0A7FA03E127
:10134000884800680328F1D18848006880B101F01E
:10135000C1F8002085490860012085490860012105
:10136000844800F08AF9FFF7A1FA01F08FFAEBE068
:1013700001F026F901207D4908607D490860FFF7EA
:1013800095FA01F083FADFE020217548FFF7D9F9DB
:1013900088BB74480068012811D1774800782A2852
:1013A00002D12F207449087073480078401CC0B2E5
:1013B000714908703A28B9DB30200870C4E06948E8
:1013C0000068022804D1FFF771FA01F05FFABBE070
:1013D000644800680328A9D16848006860B101200A
:1013E00001F042F9002065490860FFF75FFA01F05B
:1013F0004DFAA9E0B0E00AE0012001F0B3F90120C4
:101400005E490860FFF752FA01F040FA9CE0402183
:101410005348FFF796F9B0BB52480068012811D134
:10142000574800782A2802D12F205549087054487F
:101430000078401CC0B2524908703A2897DB30202F
:10144000087081E047480068022804D1FFF72EFAAF
:1014500001F01CFA78E043480068032874D1494839
:10146000006888B100F0FCFC0020464908600120BB
:101470004549086001213F4800F0FFF8FFF716FAE0
:1014800001F004FA60E00BE000F056FD01203D4958
:1014900008603D490860FFF709FA01F0F7F953E0E9
:1014A0004FF400513948FFF74CF9A8BB2D480068AC
:1014B000012832D12C48007835490978884213D167
:1014C0002D4800783349097888420DD12C4800789E
:1014D00031490978884207D1022022490860FFF784
:1014E000E3FAFFF7E3F910E02C480078401C2B49A1
:1014F000087008460078032805D100F0BBFC0020E6
:101500002649087001E000F0ABFC2A20164908705B
:10151000194908701A49087016E012480068022834
:1015200007D103200F490860FFF7C0F901F0AEF9B9
:101530000AE00C480068032806D102200949086027
:10154000FFF7B4F901F0A2F90021044800F095F882
:101550000121024800F08EF810BD0000004001405B
:10156000001002400800002020000020140000208D
:101570001800002000440140210000200C00002041
:1015800022000020100000201C0000200008024063
:101590002300002024000020250000202600002039
:1015A0001CB501211E4800F083F8012836D1002126
:1015B0001B4800F062F80121194800F05BF8194857
:1015C0000068012823D1002016490860012102206B
:1015D000FFF700FC02208DF8040000208DF80600C3
:1015E0004FF40040009001208DF8070003208DF893
:1015F000050069460C48FFF739F801220F210A4817
:10160000FFF77CF80021094800F004F900BF084802
:101610000068012802D10020054908601CBD0000B7
:101620000044014018000020000402400000014076
:101630001C00002010B50121064800F039F80128EF
:1016400007D181020448FFF789F80121014800F021
:1016500011F810BD001000400010024021B10288B6
:1016600042F08002028004E002884FF67F731A4045
:1016700002807047CA430282704721B1028842F05B
:101680000102028004E002884FF6FE731A400280D5
:10169000704731B1B0F8442042F40042A0F8442031
:1016A00005E0B0F84420C2F30E02A0F844207047D1
:1016B00030B50246002000230024158A05EA010304
:1016C000958905EA010413B10CB1012000E0002066
:1016D00030BD1AB183890B43838102E083898B4338
:1016E0008381704770B5002400220023058C4FF6DB
:1016F000FE7635400584028C8388048B4FF68F7507
:101700002C40B51E2C400D882C43751E2A408D8917
:101710002A434D882A43104DA84202D00F4DA842BB
:1017200013D14FF6F7752A40CD892A434FF6FB7542
:101730002A408D882A434FF6FF652B404FF6FF5510
:101740002B400D8A2B434D8A2B43838004838D6865
:101750004563028470BD00000000014000040140A8
:101760000A460021018B4FF6F7731940114301839C
:101770007047000070B5002400220023058C4FF64E
:10178000FF6635400584028C8388848B4FF68F7505
:101790002C404FF6FC752C400D882C434FF6FF551E
:1017A0002A408D894FF6FF7606EA05252A434D88A3
:1017B00006EA05252A43154DA84202D0144DA84239
:1017C0001DD14FF2FF752A40CD894FF6FF7606EA0C
:1017D00005252A434FF6FF352A408D8806EA052560
:1017E0002A434EF6FF752B404DF6FF752B400D8AB0
:1017F00006EA05152B434D8A06EA05152B4383801F
:1018000084838D68C563028470BD000000000140C0
:10181000000401400A460021818B4FF6F7731940FE
:1018200011438183704741637047C16370474162D0
:101830007047000000220288184B98420ED0184BC7
:1018400098420BD0B0F1804F08D0164B984205D08B
:10185000154B984202D0154B984204D14FF68F7326
:101860001A404B881A43124B984207D0114B9842AA
:1018700004D04FF6FF431A400B891A4302804B688D
:10188000C3620B880385054B984202D0044B9842F3
:1018900001D18B7A038601238382704700000140C7
:1018A000000401400004004000080040000C00401B
:1018B000001000400014004010B540F225510948C6
:1018C00000F006F901280CD140F22551054800F03E
:1018D000D7F8044800F0B2F904462146014800F068
:1018E000B2F910BD0010014010B540F225514F482B
:1018F00000F0EEF828B340F225514C4800F0C0F853
:101900004A4800F09BF904462146494800F09BF9FB
:10191000464800F093F94749474A127888540846E8
:1019200000782B2805D144480078401C42490870B3
:1019300007E04FF480713F48FEF749FC00203E4924
:10194000087040F22441394800F0C2F800286BD0FA
:10195000364800F073F939A13648FEF743FC50B120
:10196000012000F0FFFE012036490860FEF79EFFCF
:1019700000F08CFF53E034A12E48FEF733FC50B149
:10198000012000F071FE00202E490860FEF78EFF56
:1019900000F07CFF43E02EA12648FEF723FC48B16F
:1019A00000F0CAFA01202C490860FEF77FFF00F022
:1019B0006DFF34E029A11F48FEF714FC48B100F088
:1019C0004FFA002024490860FEF770FF00F05EFF28
:1019D00025E024A11748FEF705FC58B100F0F0FD02
:1019E00001202249086022490860FEF75FFF00F0ED
:1019F0004DFF14E01FA10F48FEF7F4FB78B100F093
:101A000069FD002019490860012019490860012179
:101A10001A48FFF732FEFEF749FF00F037FF4FF498
:101A200080710448FEF7D3FB10BD00000044004065
:101A3000001001403C000020270000204C454431AC
:101A40004F4E00000C0000204C4544314F464600EC
:101A5000424545504F4E0000100000204245455081
:101A60004F46460046414E4F4E00000014000020F5
:101A70001800002046414E4F4646000000440140F9
:101A800010B50022002340F66A14A14200D100BF25
:101A90000A1201249440A3B2DC43048010BD21B19A
:101AA000828942F40052828104E082894DF6FF73FC
:101AB0001A408281704702460020B1F5007F00D1B4
:101AC00000BF13880B400BB1012000E000207047DD
:101AD00070B50246002400230025002040F66A1657
:101AE000B14200D100BFC1F3421501F01F0301262E
:101AF00006FA03F3012D02D19689334006E0022D48
:101B000002D1168A334001E0968A33400C12012636
:101B100006FA04F41688344013B10CB1012000E039
:101B2000002070BDF0B503460024002600250020EB
:101B300040F66A17B94200D100BF1846C1F34214FB
:101B400001F01F06012707FA06F5012C01D10C3020
:101B500004E0022C01D1103000E014301AB1076803
:101B60002F43076002E00768AF430760F0BD000045
:101B70002DE9FF4705460E460024A046A146002752
:101B8000B08900B100BF2C8A24F44054F08804438B
:101B90002C82AC8941F20C608443B08831890843BF
:101BA000718908430443AC81AC8A24F44074B08941
:101BB0000443AC826846FFF74DF91E48854202D0C7
:101BC0001D48854202D1DDF80C8001E0DDF8088077
:101BD000A88900F4004030B14FEAC80031684900DC
:101BE000B0FBF1F905E04FEAC80031688900B0FBAD
:101BF000F1F96420B9FBF0F004012009642101FB34
:101C00001097A88900F4004040B1322000EBC700D3
:101C1000B0FBF1F000F00700044308E0322000EBD5
:101C200007106421B0FBF1F000F00F0004432C8199
:101C3000BDE8FF870010014000140140014688887C
:101C4000C0F308007047C1F308028280704700BFEC
:101C5000FEE700000FB4084B10B504A902AA0398D0
:101C600000F01CF8044602A9002000F0F3F820461A
:101C700010BC5DF814FB0000551E000802E008C807
:101C8000121F08C1002AFAD170477047002001E0F6
:101C900001C1121F002AFBD1704700002DE9FF4F40
:101CA0008BB09A460F460546002606E025280BD045
:101CB00052460D9990476D1C761C28780028F5D166
:101CC0000FB03046BDE8F08F0024A04601226049E5
:101CD00000E0044315F8013F203B02FA03F00842FC
:101CE000F7D128782E2817D115F8010F44F00404F5
:101CF0002A280ED06FF02F022878A0F13001092990
:101D00000AD808EB880102EB410100EB01086D1CC9
:101D1000F2E757F8048B6D1C287869283ED006DC62
:101D20000028CDD063280BD0642804D136E0732876
:101D300010D075284BD052460D999047761C85E0FF
:101D400017F8040B8DF8000000208DF80100E9461B
:101D5000012003E057F8049B4FF0FF3061074FF07C
:101D6000000401D40AE0641C44450DDA8442FADB25
:101D700019F804100029F6D106E0641C8442FCDB4B
:101D800019F804100029F8D1264404E019F8010BD1
:101D900052460D999047641EF8D257E001CF4FF09C
:101DA0000A0B002802DA40422D2102E0210504D569
:101DB0002B218DF82410012103E0E10705D020211B
:101DC000F7E70DF1200908910CE00021F9E701CFB8
:101DD0004FF00A0BF9E75946FEF71DFA01F1300200
:101DE00009F8012D0028F6D1ADEB090000F1200B18
:101DF000600701D44FF00108D84502DDA8EB0B00C5
:101E000000E000208046002406E009A85246005D5C
:101E10000D999047641C761C08988442F5DB04E019
:101E2000302052460D999047761CB8F10001A8F178
:101E30000108F5DC05E019F8010B52460D999047B1
:101E4000761CBBF10001ABF1010BF4DC6D1C34E737
:101E5000092801000A68531C0B60107070470000CD
:101E600010B54FF480610248FEF774FC10BD00000D
:101E70000004024010B500F05FF8642000F086F81E
:101E8000FFF7EEFF642000F081F800F055F86420C1
:101E900000F07CF8FFF7E4FF642000F077F800F032
:101EA0004BF8642000F072F8FFF7DAFF4FF4FA7095
:101EB00000F06CF810BD000010B504460B48006837
:101EC000012800D110BD0A480068012800D1F9E7B7
:101ED0001C2C05DBFFF7CEFF01200649086002E05D
:101EE00000200449086000BFECE700000800002063
:101EF0001C000020100000201CB501210220FEF76C
:101F000069FF01208DF8040000208DF806004FF4D1
:101F10008060009001208DF8070003208DF80500F7
:101F200069460448FEF7A2FB4FF480610148FEF7C2
:101F300011FC1CBD0004024010B54FF48061024842
:101F4000FEF70AFC10BD0000000402404FF0E02143
:101F5000096921F005014FF0E0221161C21700EB81
:101F60005272C2F3C702074B1A701946097801EB87
:101F70004102C2EBC1114FF6FF7202EAC101024AEF
:101F800011807047280000202A00002070B5044608
:101F90004FF4077094FBF0F0C6B24FF4077094FB57
:101FA000F0F100FB114085B205E04FF4077000F03E
:101FB0002DF8701EC6B2002EF7D115B1284600F0DC
:101FC00025F870BD0021104A127842434FF0E023FB
:101FD0005A6100229A611A46126942F001021A619E
:101FE00000BF4FF0E022116901F48032002AF8D0DE
:101FF0004FF0E022126922F001024FF0E0231A6153
:1020000000229A61704700002800002000210F4A3A
:10201000128842434FF0E0235A6100229A611A4627
:10202000126942F001021A6100BF4FF0E02211690B
:1020300001F48032002AF8D04FF0E022126922F039
:1020400001024FF0E0231A61704700002A000020CF
:102050001FB501214804FEF7DDFE0020ADF80600A3
:1020600047F22F50029044F29F10ADF8040001A9EE
:102070000D48FFF7DFFB012211460B48FFF729FB54
:1020800019208DF8000001208DF803008DF8010063
:1020900002208DF802006846FEF7CCFB00210248C2
:1020A000FFF7EBFA1FBD00000044014000B58BB004
:1020B00001210220FEF78EFE01210846FEF7AAFE4E
:1020C00002208DF8280000208DF82A004FF40040EF
:1020D000099001208DF82B0003208DF8290009A913
:1020E0001D48FEF7C3FA01220F211B48FEF706FB2D
:1020F0000020ADF82000ADF81A004FF47A70079078
:10210000A720ADF8180006A91448FFF793FB60203C
:10211000ADF804004FF47A7003900020ADF816007B
:102120000820ADF812000420ADF8080001A90B4802
:10213000FFF720FB08210948FFF76CFB0121074846
:10214000FFF78CFA01210548FFF797FA01210348B0
:10215000FFF79FFA0BB000BD0004024000000140F1
:1021600000B58BB001211020FEF734FE0121084696
:10217000FEF750FE02208DF8280000208DF82A007E
:102180004FF40070099001208DF82B0003208DF88A
:10219000290009A91D48FEF769FA012209211B48F7
:1021A000FEF7ACFA0020ADF82000ADF81A004FF4AD
:1021B0007A7007904FF4C870ADF8180006A914485B
:1021C000FFF738FB6020ADF804000020ADF81400E4
:1021D000ADF810004FF47A7003900120ADF80600BE
:1021E00001A90B48FFF77EFA08210948FFF7B8FA62
:1021F00001210748FFF732FA01210548FFF73DFAB0
:1022000001210348FFF745FA0BB000BD0010024062
:10221000000001401FB501211020FEF7EBFD00205A
:10222000ADF8060041F28730029042F2CF00ADF8DF
:10223000040001A90C48FFF7FDFA012211460A48E3
:10224000FFF747FA36208DF8000001208DF80300D3
:102250008DF801008DF802006846FEF7EBFA0121C7
:102260000148FFF70AFA1FBD001000401FB5012109
:102270000804FEF7CFFD0020ADF80600C72002904D
:1022800044F29F10ADF8040001A90D48FFF7D2FAFF
:10229000012211460A48FFF71CFA18208DF80000A9
:1022A00001208DF803008DF8010002208DF8020056
:1022B0006846FEF7BFFA01210148FFF7DEF91FBDAE
:1022C0000040014000B587B001210846FEF782FDBD
:1022D00001211020FEF79EFD072209212448FEF768
:1022E0000DFA07220A212248FEF708FA02208DF88B
:1022F000180000208DF81A004FF4C06005900120EE
:102300008DF81B0003208DF8190005A91848FEF769
:10231000ADF94FF4E13001900020ADF810000C2031
:10232000ADF80E000020ADF80C00ADF80A00ADF8D5
:10233000080001A90F48FFF71BFC25208DF80000BD
:1023400001208DF8030000208DF8010001208DF898
:1023500002006846FEF76EFA012240F22551054858
:10236000FFF7E0FB01210348FFF799FB07B000BD31
:10237000000002400010014000B587B00121082094
:10238000FEF728FD01214804FEF734FD0722052150
:102390002748FEF7B3F9072206212548FEF7AEF9D4
:1023A00002208DF8180000208DF81A00602005909A
:1023B00001208DF81B0003208DF8190005A91C4889
:1023C000FEF754F94FF4E13001900020ADF8100011
:1023D0000C20ADF80E000020ADF80C00ADF80A009E
:1023E000ADF8080001A91348FFF7C2FB26208DF8BD
:1023F000000001208DF8030000208DF8010001206D
:102400008DF802006846FEF715FA012240F22551C8
:102410000848FFF787FB012240F224410548FFF7F7
:1024200081FB01210348FFF73AFB07B000BD000024
:10243000000C0240004400400EB501218803FEF765
:10244000E9FC04210846FEF7E7FD05210420FEF71C
:10245000E3FD06210420FEF7DFFD0D210220FEF73B
:10246000DBFD42F27000019001208DF80A0000208F
:102470008DF808000C208DF8090001A8FEF7ACF8D3
:102480000A208DF8000001208DF803008DF801006E
:102490008DF802006846FEF7CDF917208DF8000090
:1024A00001208DF8030000208DF801008DF8020056
:1024B0006846FEF7BFF928208DF8000001208DF84E
:1024C000030002208DF801008DF802006846FEF737
:1024D000B1F90EBD10B500210548FFF79BF900F0DA
:1024E0004FF84FF400410348FEF734F910BD0000E7
:1024F000000001400004024010B504461D48006879
:10250000012800D110BD1C480068012800D1F9E75E
:10251000282C03DA00201949086002E0012017493D
:102520000860282C03DA002000F05CF820E0322C50
:1025300006DA282C04DB4FF4967000F053F817E00D
:102540003C2C06DA322C04DB4FF4167000F04AF80B
:102550000EE0502C06DA3C2C04DB4FF4617000F0E6
:1025600041F805E0502C03DB4FF47A7000F03AF8A4
:1025700000BFC7E70800002018000020140000205A
:102580001CB501210220FEF725FC01208DF8040076
:1025900000208DF806004FF40040009001208DF8D7
:1025A000070000208DF8050069460448FEF75EF834
:1025B0004FF400410148FEF7CDF81CBD0004024075
:1025C00010B500210548FFF725F9FFF7D9FF4FF4B3
:1025D00000410348FEF7C0F810BD000000000140B4
:1025E0000004024010B50446C4F57A710148FFF7B3
:1025F0001CF910BD0000014070B5044600250026FE
:1026000008E0FEF7AFF8284485B20520FFF7BEFCCE
:10261000701CC6B2A642F4DB95FBF4F080B270BD2C
:102620001CB501211020FEF7D5FB01210420FEF787
:10263000D1FB00208DF804007020009001208DF85F
:1026400007008DF8050069460548FEF70FF84FF4BE
:102650000050009069460348FEF708F81CBD0000D2
:10266000001002400008024010B50446012C04D1BD
:1026700001020948FEF770F80DE0022C04D1210296
:102680000548FEF769F806E0032C04D14FF4806199
:102690000148FEF761F810BD0010024010B5044675
:1026A0001E480068012800D110BDB4F57A7F05DA14
:1026B0004FF47A711A48FFF7B6F82DE040F2DC507B
:1026C000844208DAB4F57A7F05DB4FF4617114486F
:1026D000FFF7A9F820E0B4F52F6F09DA40F2DC50DB
:1026E000844205DB4FF4FA710D48FFF79CF813E0C4
:1026F00040F6B830844207DAB4F52F6F04DB64216A
:102700000748FFF790F807E040F6B830844203DB53
:1027100000210348FFF787F800BFC5E70800002045
:10272000000001401CB501211020FEF753FB0120E1
:102730008DF8040000208DF806004FF4A060009092
:1027400001208DF807008DF8050069460448FDF763
:102750008DFF4FF4A0610248FDF7FEFF1CBD000095
:102760000010024010B50446012C04D101020948B2
:10277000FDF7F0FF0DE0022C04D121020548FDF722
:10278000E9FF06E0032C04D14FF480610148FDF716
:10279000E1FF10BD00100240FFF7C4FFFFF7ACFBE4
:1027A000A820FFF7D3FBFFF78DFDFEF7D3F8FDF769
:1027B00023FEFFF7D5FCFFF72DFDFFF73DFEFFF7EA
:1027C0002FFFFFF753FDFFF743FC00F02BF8FFF757
:1027D0006DFCFFF7D1FD00F02FFA1BE00E490F480A
:1027E000FDF74CFE0520FFF707FF0D49088000F0BC
:1027F000C3FA0B480088FFF751FF08480088FFF72D
:102800005BFB05480088FFF777FE00F03FF8642087
:10281000FFF7BCFBE2E70000020000200000002000
:102820000400002008B5FEF741F80120102304221F
:10283000002100902420FEF709FA01201023052230
:10284000002100903220FEF701FA01201023062219
:10285000002100904020FEF7F9F90120102307A283
:10286000194600900820FEF773FAFEF71DF94FF4A1
:10287000FA60FFF78BFBFEF719F808BD534D415284
:10288000542046414D494C590000000008B593487A
:10289000006801287ED11023072200210090082023
:1028A000FEF7D4F901201023082200210090162001
:1028B000FEF7CCF9012010230922002100902420EA
:1028C000FEF7C4F9012010230A22002100903220D3
:1028D000FEF7BCF9012010230B22002100904020BC
:1028E000FEF7B4F9012010230C22002100905020A3
:1028F000FEF7ACF9012010230D22002100905E208C
:10290000FEF7A4F9012010230E22002100906C2074
:10291000FEF79CF90120102371A219460090302087
:10292000FEF716FA6F4802786FA17048FFF792F928
:10293000012010236D4A194600904920FEF708FA3D
:10294000012010236AA2202100903020FEF700FA17
:102950006848027864A16548FFF77CF901201023DC
:10296000624A202100904920FEF7F2F9012010234D
:1029700061A2302100900846FEF7EAF95F4802782C
:1029800059A15A48FFF766F901201023574A302110
:10299000009000E005E04920FEF7DAF9FEF784F840
:1029A0009AE04E48006802284CD10120102354A21E
:1029B000194600900020FEF7CBF95348028853A136
:1029C0004A48FFF747F901201023484A194600906A
:1029D0002820FEF7BDF9012010234EA220210090EF
:1029E0000020FEF7B5F94D4802884DA13F48FFF79A
:1029F00031F9012010233D4A202100902820FEF7C4
:102A0000A7F90120102348A2402100900020FEF7E2
:102A10009FF94748028847A13448FFF71BF9012076
:102A20001023324A402100903220FEF791F9012014
:102A3000082342A2322100900020FEF789F9FEF718
:102A400033F849E025480068032845D13C48006830
:102A500040B1012010233BA2194600900020FEF750
:102A600077F907E00120102338A2194600900020D2
:102A7000FEF76EF93848006840B10120102337A2F4
:102A8000202100900020FEF763F907E001201023C9
:102A900034A2202100900020FEF75AF93448006843
:102AA00040B10120102333A2402100900020FEF706
:102AB0004FF907E00120102330A2402100900020B0
:102AC000FEF746F9012008232EA2322100900020B3
:102AD000FEF73EF9FDF7E8FF08BD00000800002002
:102AE0004B313A002000002025630000BC05002087
:102AF0004B323A00210000204B333A0022000020E4
:102B0000746D703A0000000000000020256420432E
:102B10000000000068756D693A00000002000020A6
:102B200025642052480000006C696768743A000010
:102B3000040000202564204C75780000312F3200FD
:102B40000C0000204C4544313A4F4E004C45443176
:102B50003A4F464600000000100000204245455014
:102B60003A4F4E00424545503A4F4646000000005D
:102B70001400002046414E3A4F4E000046414E3A66
:102B80004F464600322F320008B50120102307229D
:102B9000202100900820FEF759F801201023082278
:102BA000202100901620FEF751F801201023092261
:102BB000202100902420FEF749F8012010230A224A
:102BC000202100903220FEF741F8012010230B2233
:102BD000202100904020FEF739F8012010230C221C
:102BE000202100905020FEF731F8012010230D2203
:102BF000202100905E20FEF729F8012010230E22EC
:102C0000202100906C20FEF721F8FDF74DFF08BD54
:102C100070B505460C460BE021782846FFF713F8FF
:102C200000BF80212846FEF746FF0028F9D0641C2B
:102C300020780028F0D170BD10B5FFF7A5FF4FF444
:102C40007A70FFF7A3F925A12748FFF7E1FF4FF4BA
:102C5000FA70FFF79BF925A12348FFF7D9FF4FF43E
:102C6000FA70FFF793F923A11F48FFF7D1FF4FF444
:102C7000FA70FFF78BF923A11B48FFF7C9FF4FF448
:102C80007A70FFF783F928A11748FFF7C1FF41F2D7
:102C90008830FFF77BF92BA11348FFF7B9FF4FF4FA
:102CA0007A70FFF773F92AA10F48FFF7B1FF4FF4CD
:102CB0007A70FFF76BF92AA10B48FFF7A9FF4FF4D1
:102CC0007A70FFF763F918A10748FFF7A1FF4FF4E7
:102CD0007A70FFF75BF9FDF7E9FD10BD41542B5207
:102CE00053540D0A000000000044004041540D0AF6
:102CF0000000000041542B43574D4F44453D320DD9
:102D00000A00000041542B43575341503D226C634D
:102D100067676767222C22313233343536373839CA
:102D2000222C352C340D0A0041542B43495041507C
:102D30003D223139322E3136382E34332E31220DA8
:102D40000A00000041542B43494653520D0A00002B
:102D500041542B4349504D55583D310D0A00000058
:102D600041542B4349505345525645523D312C381E
:102D70003038300D0A00000000B5C1B007480088A7
:102D80000090074803880748028807A101A8FEF7BA
:102D900061FF01A8FEF786F941B000BD04000020E4
:102DA0000200002000000020746D70232564232C95
:102DB00068756D69232564232C6C69676874232505
:102DC000642300000000000000000000002F00004D
:102DD00000000700070000147F147F1400242A7FDE
:102DE0002A1200626408132300364955225000005D
:102DF0000503000000001C224100000041221C00CD
:102E00000014083E08140008083E0808000000A04E
:102E1000600000080808080800006060000000204A
:102E200010080402003E5149453E0000427F400028
:102E3000004261514946002141454B3100181412AE
:102E40007F10002745454539003C4A49493000017B
:102E50007109050300364949493600064949291ECA
:102E6000000036360000000056360000000814222C
:102E7000410000141414141400004122140800022C
:102E80000151090600324959513E007C1211127C51
:102E9000007F49494936003E41414122007F41417E
:102EA000221C007F49494941007F09090901003E70
:102EB0004149497A007F0808087F0000417F4100AE
:102EC000002040413F01007F08142241007F404024
:102ED0004040007F020C027F007F0408107F003E0C
:102EE0004141413E007F09090906003E4151215EF2
:102EF000007F091929460046494949310001017FEF
:102F00000101003F4040403F001F2040201F003F84
:102F10004038403F00631408146300070870080736
:102F200000615149454300007F41410000552A5549
:102F30002A55000041417F000004020102040040C4
:102F400040404040000001020400002054545478E6
:102F5000007F484444380038444444200038444406
:102F6000487F00385454541800087E0901020018A4
:102F7000A4A4A47C007F080404780000447D4000E1
:102F8000004080847D00007F102844000000417FC5
:102F90004000007C04180478007C080404780038A1
:102FA0004444443800FC242424180018242418FC29
:102FB000007C0804040800485454542000043F4492
:102FC0004020003C4040207C001C2040201C003C55
:102FD0004030403C004428102844001CA0A0A07CA5
:102FE000004464544C4414141414141400000000DD
:102FF00000000000000000000000FC0000000000D5
:1030000002000000000C020C0200000000000000A2
:1030100090D0BCD0BC900003000300001824FE44F4
:103020008C000302070201001824D8B04C80000372
:1030300000010201C038E438E0000102020102028E
:10304000080600000000000000000000000000F87A
:103050000402000000010204000204F80000000461
:10306000020100009060F860900000000100000084
:103070002020FC20200000000100000000000000D3
:103080000000080600000000202020202000000092
:10309000000000000000000000000002000000002E
:1030A0000080601C0200040300000000F804040417
:1030B000F8000102020201000008FC00000000020A
:1030C00003020000188444241800030202020200D4
:1030D00008042424D80001020202010040B088FC48
:1030E00080000000000302003C242424C4000102EC
:1030F00002020100F824242CC00001020202010097
:103100000C04E41C0400000003000000D824242464
:10311000D80001020202010038444444F8000003D0
:103120000202010000001000000000000200000088
:103130000000200000000000060000000020508871
:1031400004020000000001029090909090000000A6
:10315000000000000002048850200002010000006E
:103160001804C4241800000002000000F804E494CD
:10317000F80001020202020000E09CF0800002035D
:103180000000030204FC2424D80002030202010010
:10319000F80404040C0001020202010004FC04040F
:1031A000F80002030202010004FC24740C00020374
:1031B0000202030004FC24740C000203020000005D
:1031C000F0080444CC4000010202010004FC20206D
:1031D000FC040203000003020404FC0404000202D5
:1031E00003020200000404FC0404060404030000BB
:1031F00004FC24D00C0402030200030204FC0400BB
:103200000000020302020203FC3CC03CFC0003007D
:103210000300030004FC30C4FC04020302000300AA
:10322000F8040404F80001020202010004FC242452
:103230001800020302000000F8848404F800010270
:103240000207050004FC2464980002030200030244
:10325000182424448C000302020201000C04FC0424
:103260000C0000020302000004FC0000FC0400014A
:1032700002020100047C80E01C0400000300000046
:103280001CE03CE01C00000300030000049C609C68
:103290000400020300030200041CE01C04000002FE
:1032A000030200000C84641C0400020302020300F9
:1032B0000000FE020200000007040400000E30C0FF
:1032C0000000000000010200000202FE00000004F5
:1032D00004070000000402040000000000000000D9
:1032E00000000000000008080808080800000200AC
:1032F00000000000000000000040A0A0C00000018D
:103300000202030204FC2020C000000302020100AC
:1033100000C02020600000010202020000C0202442
:10332000FC0000010202030200C0A0A0C0000001D6
:10333000020202000020F82424040002030202001A
:103340000040A0A0602000070A0A0A0404FC202014
:10335000C0000203020003020020E400000000029B
:1033600003020000000020E4000008080807000035
:1033700004FC80E020200203020003020404FC009D
:103380000000020203020200E020E020C00003006F
:103390000300030020E02020C0000203020003021B
:1033A00000C02020C00000010202010020E0202017
:1033B000C000080F0A02010000C02020E000000148
:1033C000020A0F0820E04020200002030200000053
:1033D0000060A0A020000002020203000020F820EC
:1033E000000000000102020020E00020E0000001D7
:1033F0000202030220E020806020000003010000A0
:103400006080E080600000030003000020608060B6
:10341000200002030003020020E020806020080852
:10342000070100000020A06020000002030202004B
:10343000000020DE0200000000070400000000FF82
:1034400000000000000F00000002DE200000000469
:103450000700000002010204040200000000000056
:10346000000000000000000000000000000000005C
:10347000000000F8000000000000003330000000F1
:1034800000100C06100C06000000000000000000F8
:1034900040C07840C0784000043F04043F0404006A
:1034A000007088FC08300000001820FF211E00007A
:1034B000F008F000E018000000211C031E211E008F
:1034C00000F00888700000001E2123241927211015
:1034D00010160E00000000000000000000000000B8
:1034E000000000E01804020000000007182040005F
:1034F00000020418E000000000402018070000004F
:10350000404080F0804040000202010F01020200B2
:10351000000000F0000000000101011F0101010096
:10352000000000000000000080B0700000000000FB
:103530000000000000000000000101010101010184
:10354000000000000000000000303000000000001B
:1035500000000000806018040060180601000000F0
:1035600000E010080810E000000F102020100F00ED
:10357000001010F8000000000020203F2020000074
:1035800000700808088870000030282422213000CC
:1035900000300888884830000018202020110E00D4
:1035A0000000C02010F8000000070424243F24007D
:1035B00000F80888880808000019212020110E0052
:1035C00000E0108888180000000F112020110E0064
:1035D00000380808C83808000000003F000000005C
:1035E0000070880808887000001C222121221C001D
:1035F00000E010080810E0000000312222110F0046
:10360000000000C0C00000000000003030000000DA
:10361000000000800000000000008060000000004A
:103620000000804020100800000102040810200063
:1036300040404040404040000404040404040400AE
:103640000008102040800000002010080402010043
:10365000007048080808F000000000303601000043
:10366000C030C828E810E0000718272423140B00F6
:103670000000C038E0000000203C23020227382070
:1036800008F8888888700000203F202020110E0054
:10369000C03008080808380007182020201008004B
:1036A00008F808080810E000203F202020100F0034
:1036B00008F88888E8081000203F20202320180000
:1036C00008F88888E8081000203F20000300000068
:1036D000C03008080838000007182020221E020009
:1036E00008F808000008F808203F210101213F20C8
:1036F000000808F8080800000020203F20200000F3
:1037000000000808F8080800C08080807F000000E2
:1037100008F888C028180800203F2001263820001B
:1037200008F8080000000000203F20202020300082
:1037300008F8F800F8F80800203F003F003F20009C
:1037400008F830C00008F808203F200007183F00A4
:10375000E01008080810E0000F10202020100F00D3
:1037600008F808080808F000203F210101010000C6
:10377000E01008080810E0000F18242438504F000B
:1037800008F8888888887000203F2000030C3020CB
:1037900000708808080838000038202121221C0009
:1037A000180808F8080818000000203F2000000052
:1037B00008F808000008F808001F202020201F003B
:1037C0000878880000C83808000007380E0100009B
:1037D000F80800F80008F800033C0700073C030065
:1037E000081868808068180820302C03032C3020CB
:1037F0000838C800C83808000000203F200000003A
:1038000010080808C8380800203826212020180091
:10381000000000FE020202000000007F4040400065
:10382000000C30C000000000000000010638C0009D
:1038300000020202FE000000004040407F00000045
:10384000000004020202040000000000000000006A
:103850000000000000000000808080808080808068
:103860000002020400000000000000000000000050
:1038700000008080808000000019242222223F2046
:1038800008F8008080000000003F112020110E0089
:103890000000008080800000000E11202020110018
:1038A000000000808088F800000E112020103F20CA
:1038B0000000808080800000001F2222222213004E
:1038C000008080F0888888180020203F2020000099
:1038D0000000808080808000006B9494949360004E
:1038E00008F8008080800000203F210000203F2059
:1038F00000809898000000000020203F2020000059
:10390000000000809898000000C08080807F000048
:1039100008F8000080808000203F24022D30200025
:10392000000808F8000000000020203F20200000D0
:103930008080808080808000203F20003F20003FEA
:103940008080008080800000203F210000203F20F8
:103950000000808080800000001F202020201F00A9
:10396000808000808000000080FFA12020110E00D8
:103970000000008080808000000E112020A0FF80C9
:10398000808080008080800020203F212000010076
:1039900000008080808080000033242424241900CB
:1039A000008080E0808000000000001F20200000D8
:1039B0008080000000808000001F202020103F2019
:1039C000808080000080808000010E3008060100A9
:1039D00080800080008080800F300C030C300F004E
:1039E00000808000808080000020312E0E31200079
:1039F000808080000080808080818E7018060100A9
:103A000000808080808080000021302C22213000C6
:103A100000000000807C020200000000003F4040E7
:103A200000000000FF00000000000000FF00000098
:103A30000002027C800000000040403F00000000C7
:103A40000006010102020404000000000000000062
:103A50000000000000000000000000000000000066
:103A60000000000000000000000000000000000056
:103A7000000000000000000000F0F0F00000000076
:103A80000000000000017F010000000000000000B5
:103A9000001C1C1C0000000000008060301C8C60BA
:103AA000301C0C00000000000000000000000000BE
:103AB000000000000000000000000000000000E026
:103AC0000000000000E000000086E69F86868686F3
:103AD000E69F860000011F01010101011F01010095
:103AE000000080C06020F820E0C000000000030754
:103AF0000C18FF70E18100000000070F10107F100C
:103B00000F0700008060206080000000E0200000BF
:103B10000F3020309F70DC371030C0000000100ED6
:103B200003000718101807000000C02020E0C000A4
:103B30000000000080E01F38E88703C43C04000058
:103B4000070F1810100B070D1010080000808C4C88
:103B5000380000000000000000000000000000002D
:103B60000000000000000000000000000000000055
:103B700000000000000080E03008040000000000A9
:103B800000FEFF0100000000000000000000030F25
:103B90001820400000040830E08000000000000011
:103BA0000000000001FFFE0000000000004020189F
:103BB0000F03000000000000000000000000C00033
:103BC00000000000004266663C18FF183C66664232
:103BD00000000000000003000000000000000000E2
:103BE0000000800000000000001010101010FF10F6
:103BF0001010101000000000000003000000000082
:103C000000000000000000000000000000000000B4
:103C1000000000000000000000808C4C3800000014
:103C20000000000000000000000000000000000094
:103C300000101010101010101010100000000000E4
:103C40000000000000000000000000000000000074
:103C50000000000000000000000000000000000064
:103C600000001C1C1C000000000000000000000000
:103C700000000000E0380C000000000080701C0311
:103C8000000000000060380E01000000000000008D
:103C9000000080C060202060C080000000FEFF01A6
:103CA0000000000001FFFE000001070E18101018B0
:103CB0000E0701000000808080C0E00000000000CE
:103CC0000000000000FFFF000000000000001010D6
:103CD000101F1F10101000000080402020202060C6
:103CE000C080000000030300804020381F07000050
:103CF000001C1A1918181818181F00000080C0207E
:103D0000202060C080000000000303001010182F66
:103D1000E780000000070F10101010180F070000B8
:103D2000000000000000C0E0F000000000C0B0880B
:103D3000868180FFFF808000000000000010101FBF
:103D40001F1010000000E0606060606060600000B4
:103D500000003F1008080818F0E0000000070B10F2
:103D60001010101C0F030000000080C04020202015
:103D7000E0C0000000FCFF211008080818F0E00077
:103D80000001070C18101010080F03000000C0E01D
:103D90006060606060E06000000003000000E01808
:103DA0000700000000000000001F1F0000000000CE
:103DB0000080C0602020202060C080000087EF2CA1
:103DC0001818303068CF830000070F08101010104B
:103DD000180F07000000C0C020202020C080000075
:103DE000001F3F604040402010FFFE0000000C1C00
:103DF000101010080F030000000000000000000079
:103E00000000000000000000000E0E0E0000000088
:103E100000000000001C1C1C00000000000000004E
:103E2000000000000000000000000000000C0C007A
:103E300000000000000000000058380000000000F2
:103E4000000000000000008040201000000010284A
:103E50004482010000000000000000000000010298
:103E60000408100000000000000000000000000036
:103E7000008484848484848484848400000000001A
:103E80000000000000000000000010204080000042
:103E90000000000000000000000001824428100023
:103EA00000001008040201000000000000C02020F3
:103EB0001010101030E0C0000003030000F01008E4
:103EC0000C070300000000001C1C1C000000000088
:103ED000000000C0406020202040C00000FCFF0126
:103EE000F00E03C1FE03807F0001070E08111110C0
:103EF000110904020000000080E0E0000000000062
:103F00000000807C4340477FF880000010181F109D
:103F100000000000131F1C1020E0E0202020206083
:103F2000C080000000FFFF10101010182FE7800065
:103F3000101F1F1010101010180F0700000080C075
:103F4000402020202060E00000FCFF010000000075
:103F5000000001000001070E1810101008040300F3
:103F600020E0E02020202040C080000000FFFF0073
:103F70000000000001FFFE00101F1F1010101808A5
:103F80000E07010020E0E02020202020206080009B
:103F900000FFFF101010107C00000000101F1F1009
:103FA000101010101018060020E0E0202020202023
:103FB0006060800000FFFF101010107C0000010006
:103FC000101F1F100000000000000000000080C053
:103FD0006020202040E0000000FCFF010000404085
:103FE000C0C140400001070E181010100F0F000054
:103FF00020E0E0200000000020E0E02000FFFF10B3
:104000001010101010FFFF00101F1F100000000004
:10401000101F1F100000202020E0E02020200000C2
:104020000000000000FFFF00000000000000101072
:10403000101F1F101010000000000000202020E0C2
:10404000E020202000000000000000FFFF00000032
:104050000060E0808080C07F3F00000020E0E02022
:10406000000020A06020200000FFFF30187CE3C08B
:1040700000000000101F1F10000001131F1C18106B
:1040800020E0E020000000000000000000FFFF0032
:104090000000000000000000101F1F101010101082
:1040A0001018060020E0E0E000000000E0E0E02062
:1040B00000FF013FFEC0E01E01FFFF00101F1000C7
:1040C000031F0300101F1F1020E0E0C000000000CD
:1040D0000020E02000FF0003071C78E08000FF00C4
:1040E000101F100000000000030F1F00000080C020
:1040F00060202060C080000000FEFF010000000082
:1041000000FFFE000001070E181010180C07010038
:1041100020E0E0202020202060C0800000FFFF2061
:1041200020202020301F0F00101F1F100000000053
:1041300000000000000080C060202060C0800000FF
:1041400000FEFF010000000000FFFE000001070E5E
:104150001111133C7C67210020E0E020202020206A
:1041600060C0800000FFFF101030F0D0080F070083
:10417000101F1F10000000030F1C10100080C060F3
:10418000202020204040E00000070F0C181830309D
:1041900060E08100001F0C0810101010180F0700BD
:1041A0008060202020E0E0202020608001000000CE
:1041B00000FFFF000000000100000000101F1F10A2
:1041C0000000000020E0E020000000000020E020CF
:1041D00000FFFF00000000000000FF0000070F18B4
:1041E00010101010100807002060E0E02000000010
:1041F00020E060200000077FF88000807C03000042
:1042000000000000071F1C070000000020E0E02065
:1042100000E0E0200020E0200007FFF8E01FFFFCA6
:10422000E01F00000000031F0300011F0300000047
:10423000002060E0A0000020E060200000000003FB
:104240008F7CF8C6010000000010181E1300011733
:104250001F1810002060E0E02000000020E0602037
:10426000000001073EF8E018070000000000001001
:10427000101F1F101000000000806020202020A0D0
:10428000E0E0200000000000C0F03E0F030000004E
:1042900000101C1F1710101010180600000000005E
:1042A00000FC0404040404000000000000FF0000FF
:1042B0000000000000000000007F4040404040003F
:1042C000000010E0000000000000000000000000FE
:1042D000031C6080000000000000000000000003DC
:1042E0000C70800000000404040404FC00000000C2
:1042F00000000000000000FF00000000000040403F
:104300004040407F0000000000000010080C040C3A
:104310000810000000000000000000000000000085
:10432000000000000000000000000000000000008D
:10433000000000000000000000000000000000007D
:10434000000000008080808080808080808080806D
:104350000000000404080800000000000000000045
:10436000000000000000000000000000000000004D
:10437000000000000000000000000000000000003D
:10438000000098D844642424FCF80000000F1F1893
:10439000101010081F1F10180020E0F0000000008F
:1043A000000000000000FFFF180804040CF8F000F3
:1043B00000001F0F18101010180F0300000000005D
:1043C000000000000000000000E0F8180404043CB5
:1043D0003800000000030F0C101010100806000039
:1043E0000000000000000020E0F0000000E0F81CE9
:1043F00004040408FFFF000000030F181010100849
:104400001F0F080000000000000000000000000076
:104410000000E0F8484444444C7870000000030F6A
:104420000C181010100804000000000080C060206C
:1044300020E0C00000040404FFFF040404040000A2
:10444000000010101F1F10101000000000000000DE
:104450000000000000000000000070F88C04048CD4
:10446000F874040C007076CF8D8D8D89C87870003B
:104470000020E0F000000000000000000000FFFF4E
:1044800008040404FCF8000000101F1F10000010B6
:104490001F1F10000000000000606000000000000E
:1044A0000000040404FCFC000000000000001010E8
:1044B000101F1F101010000000000000000000601E
:1044C0006000000000000000040404FCFC00000088
:1044D0000000C0C08080C07F3F0000000020E0F0EE
:1044E00000000000000000000000FFFF80C0F41C7E
:1044F0000404000000101F1F1100031F1C101000F7
:104500000000202020E0F00000000000000000007B
:1045100000FFFF000000000000001010101F1F101F
:10452000101000000000000000000000000000006B
:1045300004FCFC0804FCFC0804FCFC00101F1F1019
:10454000001F1F10001F1F100000000000000000CF
:10455000000000000004FCFC08080404FCF8000053
:1045600000101F1F100000101F1F1000000000008F
:10457000000000000000000000E0F0180C04040C33
:1045800018F0E00000030F0C101010100C0F0300C7
:104590000000000000000000000000000004FCFC1F
:1045A000080404040CF8F0000080FFFF889010104D
:1045B0001C0F0300000000000000000000000000CD
:1045C00000E0F81C04040408F8FC000000030F18C5
:1045D00010109088FFFF8000000000000000000025
:1045E00000000000040404FCFC100804040C0C008F
:1045F0001010101F1F10101000000000000000001D
:10460000000000000000000000003078CCC484846A
:10461000840C1C0000001E1810101011190F060049
:104620000000000000C000000000000000040404BE
:10463000FFFF040404000000000000000F1F101022
:10464000100C00000000000000000000000000004E
:104650000004FCFE00000004FCFE000000000F1F30
:10466000181010081F0F08000000000000000000D4
:104670000000000000040C3CFCC40000C43C0C041E
:1046800000000000010F1E0E0100000000000000ED
:104690000000000000000000043CFCC400E47CFCBE
:1046A00084807C040000071F070000071F0700002C
:1046B0000000000000000000000000000004041CD6
:1046C0007CE4C0341C0404000010101C1601131FED
:1046D0001C18100000000000000000000000000096
:1046E00000040C3CFCC400C43C0404000000C08076
:1046F000C1370E01000000000000000000000000B3
:104700000000000000001C0404C4F47C1C04000031
:104710000000101C1F17111010180E0000000000E0
:10472000000000F80C04000000000000001028EF5A
:1047300000000000000000000000003F604000009A
:10474000000000000000FF0000000000000000006A
:104750000000FF0000000000000000000000FF005B
:10476000000000000000040CF80000000000000041
:1047700000000000EF281000000000000000406072
:104780003F000000000000000018060202040810AC
:1047900020203008000000000000000000000000A1
:1047A000000000000000000000000000201008FCD5
:1047B000032020107F88888482E000000404040520
:1047C000040404FF04040404040404001060028CC4
:1047D00000445454547F54545444400004047E0113
:1047E0000000FF15151555957F000000404042CC94
:1047F000002022E22222E222222000000080403F0C
:1048000040A0988780809FA0A0BC8000000000FE90
:10481000020202F2020202FE000000008080404715
:10482000201806017E8080878080E00080844444D8
:1048300024140CFF0C142444448480000808080845
:10484000094989790D0B09080808080000FE225A59
:1048500086088868180FE8080808080000FF0408A0
:104860000720110D41817F010509300000FE126211
:10487000827202FE0000F80000FF000000FF080640
:10488000014E807F00000F40807F00001094533263
:104890001E325210007E4242427E0000000000FFA5
:1048A00049494949494949FF00000000222AAAFF15
:1048B000AAAAA280A2AAAAFFAA2A22008060080AA5
:1048C0006A8A8A9AAA8A8ACA0F20C000102C2424D5
:1048D000A4A465A624242424A4340C004049492916
:1048E000241452897F040A11102020000000FE9237
:1048F00092929292F29292929E80800040300F00AB
:10490000FC44444447444444FC000000101010FFA1
:104910009020984828090E2848A818000242817F54
:104920000040404242427E424242400040504E4897
:1049300048FF48484840F80000FF000000003E02E1
:1049400002FF12221E000F40807F00000000223272
:104950002AA6A2622111098101000000004222134F
:104960000B42827E02020A12234600002030AC6312
:10497000300088C8A8998E88A8C8880022672212AB
:10498000128040300F00003F40407100000000C026
:1049900080808080808080FC84808080808080C057
:1049A000C0000000000000FF7F404040404040FF4A
:1049B00040404040404040FF7F00000000000000B9
:1049C000000000000000007F7000000000000000F8
:1049D00000000000000000000000000000000000D7
:1049E000000000FCF80000000000000000000000D3
:1049F0000000000000000000FFFE020202020202AE
:104A0000020202FFFF020202020202020202FF038E
:104A100000000000000000001F1F04040404040440
:104A2000040404FFFF0404040404040404041F0039
:104A30000000000000000000000000000000000076
:104A40000000007F3F0000000000000000000000A8
:104A50000000000000000000000000000000000056
:104A60000000000000000000000000000000000046
:104A700000F8F8F0F07020000000000000000000D6
:104A80000000000000000000000000000000000026
:104A90000000000000000000000000008000000096
:104AA0000000000000000000000000000000000006
:104AB00000FFFFFFFF0000000000000000000000FA
:104AC00000000000000000008080000000000000E6
:104AD00000000000000000000000000000FFFFFEDA
:104AE0000606060606060606060606060606060666
:104AF00006FFFFFFFF060606060606060606060672
:104B000006060606060606FFFFFFFF070200000076
:104B100000000000000000000000000000FFFFFF98
:104B20000000000000000000000000000000000085
:104B300000FFFFFFFF000000000000000000000079
:104B400000000000000000FFFFFFFF000000000069
:104B500000000000000000000000000000FFFFFF58
:104B600018181818181818181818181818181818C5
:104B700018FFFFFFFF181818181818181818181819
:104B800018181818181818FFFFFFFF000000000081
:104B90000000000000000000000000000201010011
:104BA0000000000000000000000000000000000005
:104BB00000FFFFFFFF0000000000000000000000F9
:104BC00000000000000000010100000000000000E3
:104BD00000000000000000000000000000000000D5
:104BE00000000000000000000000000000000000C5
:104BF00000FFFFFFFF0000000000000000000000B9
:104C000000000000000000000000000000000000A4
:104C10000000000000000000000000000000000094
:104C20000000000000000000000000000000000084
:104C3000001F1F0F0F000000000000000000000018
:104C40000000000000000000000000000000000064
:104C500000000000744C0008000000203C00000030
:104C60007C1C0008B04C00083C00002094090000A7
:104C70008C1C000800000000000000000100000083
:104C80000000000000000000000000000000000024
:104C9000000000002A2A2A31323300000000000000
:104CA00000000000010203040102030406070809D2
:040000050800018965
:00000001FF
